{
  "contractName": "CryptosICO",
  "abi": [
    {
      "inputs": [
        {
          "internalType": "address payable",
          "name": "_deposit",
          "type": "address"
        }
      ],
      "stateMutability": "nonpayable",
      "type": "constructor"
    },
    {
      "anonymous": false,
      "inputs": [
        {
          "indexed": true,
          "internalType": "address",
          "name": "tokenOwner",
          "type": "address"
        },
        {
          "indexed": true,
          "internalType": "address",
          "name": "spender",
          "type": "address"
        },
        {
          "indexed": false,
          "internalType": "uint256",
          "name": "tokens",
          "type": "uint256"
        }
      ],
      "name": "Approval",
      "type": "event"
    },
    {
      "anonymous": false,
      "inputs": [
        {
          "indexed": false,
          "internalType": "address",
          "name": "investor",
          "type": "address"
        },
        {
          "indexed": false,
          "internalType": "uint256",
          "name": "value",
          "type": "uint256"
        },
        {
          "indexed": false,
          "internalType": "uint256",
          "name": "tokens",
          "type": "uint256"
        }
      ],
      "name": "Invest",
      "type": "event"
    },
    {
      "anonymous": false,
      "inputs": [
        {
          "indexed": true,
          "internalType": "address",
          "name": "from",
          "type": "address"
        },
        {
          "indexed": true,
          "internalType": "address",
          "name": "to",
          "type": "address"
        },
        {
          "indexed": false,
          "internalType": "uint256",
          "name": "tokens",
          "type": "uint256"
        }
      ],
      "name": "Transfer",
      "type": "event"
    },
    {
      "inputs": [],
      "name": "IcoState",
      "outputs": [
        {
          "internalType": "enum CryptosICO.State",
          "name": "",
          "type": "uint8"
        }
      ],
      "stateMutability": "view",
      "type": "function",
      "constant": true
    },
    {
      "inputs": [],
      "name": "SaleEnd",
      "outputs": [
        {
          "internalType": "uint256",
          "name": "",
          "type": "uint256"
        }
      ],
      "stateMutability": "view",
      "type": "function",
      "constant": true
    },
    {
      "inputs": [],
      "name": "SaleStart",
      "outputs": [
        {
          "internalType": "uint256",
          "name": "",
          "type": "uint256"
        }
      ],
      "stateMutability": "view",
      "type": "function",
      "constant": true
    },
    {
      "inputs": [],
      "name": "admin",
      "outputs": [
        {
          "internalType": "address",
          "name": "",
          "type": "address"
        }
      ],
      "stateMutability": "view",
      "type": "function",
      "constant": true
    },
    {
      "inputs": [
        {
          "internalType": "address",
          "name": "tokenOwner",
          "type": "address"
        },
        {
          "internalType": "address",
          "name": "spender",
          "type": "address"
        }
      ],
      "name": "allowance",
      "outputs": [
        {
          "internalType": "uint256",
          "name": "remaining",
          "type": "uint256"
        }
      ],
      "stateMutability": "view",
      "type": "function",
      "constant": true
    },
    {
      "inputs": [
        {
          "internalType": "address",
          "name": "spender",
          "type": "address"
        },
        {
          "internalType": "uint256",
          "name": "tokens",
          "type": "uint256"
        }
      ],
      "name": "approve",
      "outputs": [
        {
          "internalType": "bool",
          "name": "success",
          "type": "bool"
        }
      ],
      "stateMutability": "nonpayable",
      "type": "function"
    },
    {
      "inputs": [
        {
          "internalType": "address",
          "name": "tokenOwner",
          "type": "address"
        }
      ],
      "name": "balanceOf",
      "outputs": [
        {
          "internalType": "uint256",
          "name": "balance",
          "type": "uint256"
        }
      ],
      "stateMutability": "view",
      "type": "function",
      "constant": true
    },
    {
      "inputs": [
        {
          "internalType": "address",
          "name": "",
          "type": "address"
        }
      ],
      "name": "balances",
      "outputs": [
        {
          "internalType": "uint256",
          "name": "",
          "type": "uint256"
        }
      ],
      "stateMutability": "view",
      "type": "function",
      "constant": true
    },
    {
      "inputs": [],
      "name": "decimal",
      "outputs": [
        {
          "internalType": "uint256",
          "name": "",
          "type": "uint256"
        }
      ],
      "stateMutability": "view",
      "type": "function",
      "constant": true
    },
    {
      "inputs": [],
      "name": "deposit",
      "outputs": [
        {
          "internalType": "address payable",
          "name": "",
          "type": "address"
        }
      ],
      "stateMutability": "view",
      "type": "function",
      "constant": true
    },
    {
      "inputs": [],
      "name": "founder",
      "outputs": [
        {
          "internalType": "address",
          "name": "",
          "type": "address"
        }
      ],
      "stateMutability": "view",
      "type": "function",
      "constant": true
    },
    {
      "inputs": [],
      "name": "hardCap",
      "outputs": [
        {
          "internalType": "uint256",
          "name": "",
          "type": "uint256"
        }
      ],
      "stateMutability": "view",
      "type": "function",
      "constant": true
    },
    {
      "inputs": [],
      "name": "maxInvestment",
      "outputs": [
        {
          "internalType": "uint256",
          "name": "",
          "type": "uint256"
        }
      ],
      "stateMutability": "view",
      "type": "function",
      "constant": true
    },
    {
      "inputs": [],
      "name": "minInvestment",
      "outputs": [
        {
          "internalType": "uint256",
          "name": "",
          "type": "uint256"
        }
      ],
      "stateMutability": "view",
      "type": "function",
      "constant": true
    },
    {
      "inputs": [],
      "name": "name",
      "outputs": [
        {
          "internalType": "string",
          "name": "",
          "type": "string"
        }
      ],
      "stateMutability": "view",
      "type": "function",
      "constant": true
    },
    {
      "inputs": [],
      "name": "raisedAmount",
      "outputs": [
        {
          "internalType": "uint256",
          "name": "",
          "type": "uint256"
        }
      ],
      "stateMutability": "view",
      "type": "function",
      "constant": true
    },
    {
      "inputs": [],
      "name": "symbol",
      "outputs": [
        {
          "internalType": "string",
          "name": "",
          "type": "string"
        }
      ],
      "stateMutability": "view",
      "type": "function",
      "constant": true
    },
    {
      "inputs": [],
      "name": "tokenPrice",
      "outputs": [
        {
          "internalType": "uint256",
          "name": "",
          "type": "uint256"
        }
      ],
      "stateMutability": "view",
      "type": "function",
      "constant": true
    },
    {
      "inputs": [],
      "name": "tokenTradeStart",
      "outputs": [
        {
          "internalType": "uint256",
          "name": "",
          "type": "uint256"
        }
      ],
      "stateMutability": "view",
      "type": "function",
      "constant": true
    },
    {
      "inputs": [],
      "name": "totalSupply",
      "outputs": [
        {
          "internalType": "uint256",
          "name": "",
          "type": "uint256"
        }
      ],
      "stateMutability": "view",
      "type": "function",
      "constant": true
    },
    {
      "stateMutability": "payable",
      "type": "receive",
      "payable": true
    },
    {
      "inputs": [],
      "name": "halt",
      "outputs": [],
      "stateMutability": "nonpayable",
      "type": "function"
    },
    {
      "inputs": [],
      "name": "resume",
      "outputs": [],
      "stateMutability": "nonpayable",
      "type": "function"
    },
    {
      "inputs": [
        {
          "internalType": "address payable",
          "name": "newDeposit",
          "type": "address"
        }
      ],
      "name": "changeDepositAddress",
      "outputs": [],
      "stateMutability": "nonpayable",
      "type": "function"
    },
    {
      "inputs": [],
      "name": "getCurrentState",
      "outputs": [
        {
          "internalType": "enum CryptosICO.State",
          "name": "",
          "type": "uint8"
        }
      ],
      "stateMutability": "view",
      "type": "function",
      "constant": true
    },
    {
      "inputs": [],
      "name": "invest",
      "outputs": [
        {
          "internalType": "bool",
          "name": "",
          "type": "bool"
        }
      ],
      "stateMutability": "payable",
      "type": "function",
      "payable": true
    },
    {
      "inputs": [
        {
          "internalType": "address",
          "name": "to",
          "type": "address"
        },
        {
          "internalType": "uint256",
          "name": "tokens",
          "type": "uint256"
        }
      ],
      "name": "transfer",
      "outputs": [
        {
          "internalType": "bool",
          "name": "success",
          "type": "bool"
        }
      ],
      "stateMutability": "nonpayable",
      "type": "function"
    },
    {
      "inputs": [
        {
          "internalType": "address",
          "name": "from",
          "type": "address"
        },
        {
          "internalType": "address",
          "name": "to",
          "type": "address"
        },
        {
          "internalType": "uint256",
          "name": "tokens",
          "type": "uint256"
        }
      ],
      "name": "transferFrom",
      "outputs": [
        {
          "internalType": "bool",
          "name": "success",
          "type": "bool"
        }
      ],
      "stateMutability": "nonpayable",
      "type": "function"
    },
    {
      "inputs": [],
      "name": "burn",
      "outputs": [
        {
          "internalType": "bool",
          "name": "",
          "type": "bool"
        }
      ],
      "stateMutability": "nonpayable",
      "type": "function"
    }
  ],
  "bytecode": "0x60806040526040518060400160405280600781526020017f43727970746f73000000000000000000000000000000000000000000000000008152505f9081620000499190620004eb565b506040518060400160405280600481526020017f435250540000000000000000000000000000000000000000000000000000000081525060019081620000909190620004eb565b505f60025566038d7ea4c68000600955681043561a8829300000600a5542600c5562093a8042620000c29190620005fc565b600d5562093a80600d54620000d89190620005fc565b600e5567016345785d8a0000600f55674563918244f40000601055348015620000ff575f80fd5b50604051620020603803806200206083398181016040528101906200012591906200069b565b3360045f6101000a81548173ffffffffffffffffffffffffffffffffffffffff021916908373ffffffffffffffffffffffffffffffffffffffff160217905550620f424060038190555060035460055f60045f9054906101000a900473ffffffffffffffffffffffffffffffffffffffff1673ffffffffffffffffffffffffffffffffffffffff1673ffffffffffffffffffffffffffffffffffffffff1681526020019081526020015f20819055503360075f6101000a81548173ffffffffffffffffffffffffffffffffffffffff021916908373ffffffffffffffffffffffffffffffffffffffff1602179055508060085f6101000a81548173ffffffffffffffffffffffffffffffffffffffff021916908373ffffffffffffffffffffffffffffffffffffffff1602179055505f60115f6101000a81548160ff021916908360038111156200027b576200027a620006cb565b5b021790555050620006f8565b5f81519050919050565b7f4e487b71000000000000000000000000000000000000000000000000000000005f52604160045260245ffd5b7f4e487b71000000000000000000000000000000000000000000000000000000005f52602260045260245ffd5b5f60028204905060018216806200030357607f821691505b602082108103620003195762000318620002be565b5b50919050565b5f819050815f5260205f209050919050565b5f6020601f8301049050919050565b5f82821b905092915050565b5f600883026200037d7fffffffffffffffffffffffffffffffffffffffffffffffffffffffffffffffff8262000340565b62000389868362000340565b95508019841693508086168417925050509392505050565b5f819050919050565b5f819050919050565b5f620003d3620003cd620003c784620003a1565b620003aa565b620003a1565b9050919050565b5f819050919050565b620003ee83620003b3565b62000406620003fd82620003da565b8484546200034c565b825550505050565b5f90565b6200041c6200040e565b62000429818484620003e3565b505050565b5b818110156200045057620004445f8262000412565b6001810190506200042f565b5050565b601f8211156200049f5762000469816200031f565b620004748462000331565b8101602085101562000484578190505b6200049c620004938562000331565b8301826200042e565b50505b505050565b5f82821c905092915050565b5f620004c15f1984600802620004a4565b1980831691505092915050565b5f620004db8383620004b0565b9150826002028217905092915050565b620004f68262000287565b67ffffffffffffffff81111562000512576200051162000291565b5b6200051e8254620002eb565b6200052b82828562000454565b5f60209050601f83116001811462000561575f84156200054c578287015190505b620005588582620004ce565b865550620005c7565b601f19841662000571866200031f565b5f5b828110156200059a5784890151825560018201915060208501945060208101905062000573565b86831015620005ba5784890151620005b6601f891682620004b0565b8355505b6001600288020188555050505b505050505050565b7f4e487b71000000000000000000000000000000000000000000000000000000005f52601160045260245ffd5b5f6200060882620003a1565b91506200061583620003a1565b925082820190508082111562000630576200062f620005cf565b5b92915050565b5f80fd5b5f73ffffffffffffffffffffffffffffffffffffffff82169050919050565b5f62000665826200063a565b9050919050565b620006778162000659565b811462000682575f80fd5b50565b5f8151905062000695816200066c565b92915050565b5f60208284031215620006b357620006b262000636565b5b5f620006c28482850162000685565b91505092915050565b7f4e487b71000000000000000000000000000000000000000000000000000000005f52602160045260245ffd5b61195a80620007065f395ff3fe6080604052600436106101b9575f3560e01c806376809ce3116100eb578063cc9ba58311610089578063e8b5e51f11610063578063e8b5e51f146105fe578063edf7f6fb1461061c578063f851a44014610646578063fb86a40414610670576101c8565b8063cc9ba5831461056e578063d0e30db014610598578063dd62ed3e146105c2576101c8565b806395d89b41116100c557806395d89b41146104b4578063a9059cbb146104de578063bc55cdde1461051a578063c59ee1dc14610544576101c8565b806376809ce3146104365780637ff9b596146104605780638ac2c6801461048a576101c8565b8063378aa701116101585780634d853ee5116101325780634d853ee5146103925780635ed7ca5b146103bc5780636d58c88f146103d257806370a08231146103fa576101c8565b8063378aa7011461031457806337a5fbab1461033e57806344df8e7014610368576101c8565b8063095ea7b311610194578063095ea7b31461023657806318160ddd1461027257806323b872dd1461029c57806327e235e3146102d8576101c8565b80622e1316146101cc578063046f7da2146101f657806306fdde031461020c576101c8565b366101c8576101c661069a565b005b5f80fd5b3480156101d7575f80fd5b506101e06108cd565b6040516101ed91906113eb565b60405180910390f35b348015610201575f80fd5b5061020a6108d3565b005b348015610217575f80fd5b50610220610957565b60405161022d919061148e565b60405180910390f35b348015610241575f80fd5b5061025c60048036038101906102579190611536565b6109e2565b604051610269919061158e565b60405180910390f35b34801561027d575f80fd5b50610286610b23565b60405161029391906113eb565b60405180910390f35b3480156102a7575f80fd5b506102c260048036038101906102bd91906115a7565b610b29565b6040516102cf919061158e565b60405180910390f35b3480156102e3575f80fd5b506102fe60048036038101906102f991906115f7565b610b4e565b60405161030b91906113eb565b60405180910390f35b34801561031f575f80fd5b50610328610b63565b6040516103359190611695565b60405180910390f35b348015610349575f80fd5b50610352610be2565b60405161035f91906113eb565b60405180910390f35b348015610373575f80fd5b5061037c610be8565b604051610389919061158e565b60405180910390f35b34801561039d575f80fd5b506103a6610cc1565b6040516103b391906116bd565b60405180910390f35b3480156103c7575f80fd5b506103d0610ce6565b005b3480156103dd575f80fd5b506103f860048036038101906103f39190611711565b610d6a565b005b348015610405575f80fd5b50610420600480360381019061041b91906115f7565b610e05565b60405161042d91906113eb565b60405180910390f35b348015610441575f80fd5b5061044a610e4b565b60405161045791906113eb565b60405180910390f35b34801561046b575f80fd5b50610474610e51565b60405161048191906113eb565b60405180910390f35b348015610495575f80fd5b5061049e610e57565b6040516104ab91906113eb565b60405180910390f35b3480156104bf575f80fd5b506104c8610e5d565b6040516104d5919061148e565b60405180910390f35b3480156104e9575f80fd5b5061050460048036038101906104ff9190611536565b610ee9565b604051610511919061158e565b60405180910390f35b348015610525575f80fd5b5061052e610f0c565b60405161053b9190611695565b60405180910390f35b34801561054f575f80fd5b50610558610f1e565b60405161056591906113eb565b60405180910390f35b348015610579575f80fd5b50610582610f24565b60405161058f91906113eb565b60405180910390f35b3480156105a3575f80fd5b506105ac610f2a565b6040516105b9919061174b565b60405180910390f35b3480156105cd575f80fd5b506105e860048036038101906105e39190611764565b610f4f565b6040516105f591906113eb565b60405180910390f35b61060661069a565b604051610613919061158e565b60405180910390f35b348015610627575f80fd5b50610630610fd1565b60405161063d91906113eb565b60405180910390f35b348015610651575f80fd5b5061065a610fd7565b60405161066791906116bd565b60405180910390f35b34801561067b575f80fd5b50610684610ffc565b60405161069191906113eb565b60405180910390f35b5f6106a3610b63565b60115f6101000a81548160ff021916908360038111156106c6576106c5611622565b5b0217905550600160038111156106df576106de611622565b5b60115f9054906101000a900460ff166003811115610700576106ff611622565b5b14610709575f80fd5b600f54341015801561071d57506010543411155b610725575f80fd5b34600b5f82825461073691906117cf565b92505081905550600a54600b54111561074d575f80fd5b5f6009543461075c919061182f565b90508060055f3373ffffffffffffffffffffffffffffffffffffffff1673ffffffffffffffffffffffffffffffffffffffff1681526020019081526020015f205f8282546107aa91906117cf565b925050819055508060055f60045f9054906101000a900473ffffffffffffffffffffffffffffffffffffffff1673ffffffffffffffffffffffffffffffffffffffff1673ffffffffffffffffffffffffffffffffffffffff1681526020019081526020015f205f82825461081e919061185f565b9250508190555060085f9054906101000a900473ffffffffffffffffffffffffffffffffffffffff1673ffffffffffffffffffffffffffffffffffffffff166108fc3490811502906040515f60405180830381858888f19350505050158015610889573d5f803e3d5ffd5b507f4ae4bd7655e0d350876a23cd90c4227b13db560e34435c6a488150a9c844bf5f3334836040516108bd93929190611892565b60405180910390a1600191505090565b60105481565b60075f9054906101000a900473ffffffffffffffffffffffffffffffffffffffff1673ffffffffffffffffffffffffffffffffffffffff163373ffffffffffffffffffffffffffffffffffffffff161461092b575f80fd5b600160115f6101000a81548160ff021916908360038111156109505761094f611622565b5b0217905550565b5f8054610963906118f4565b80601f016020809104026020016040519081016040528092919081815260200182805461098f906118f4565b80156109da5780601f106109b1576101008083540402835291602001916109da565b820191905f5260205f20905b8154815290600101906020018083116109bd57829003601f168201915b505050505081565b5f8160055f3373ffffffffffffffffffffffffffffffffffffffff1673ffffffffffffffffffffffffffffffffffffffff1681526020019081526020015f20541015610a2c575f80fd5b5f8211610a37575f80fd5b8160065f3373ffffffffffffffffffffffffffffffffffffffff1673ffffffffffffffffffffffffffffffffffffffff1681526020019081526020015f205f8573ffffffffffffffffffffffffffffffffffffffff1673ffffffffffffffffffffffffffffffffffffffff1681526020019081526020015f20819055508273ffffffffffffffffffffffffffffffffffffffff163373ffffffffffffffffffffffffffffffffffffffff167f8c5be1e5ebec7d5bd14f71427d1e84f3dd0314c0f7b2291e5b200ac8c7c3b92584604051610b1191906113eb565b60405180910390a36001905092915050565b60035481565b5f600e544211610b37575f80fd5b610b42848484611002565b50600190509392505050565b6005602052805f5260405f205f915090505481565b5f600380811115610b7757610b76611622565b5b60115f9054906101000a900460ff166003811115610b9857610b97611622565b5b03610ba65760039050610bdf565b600c54421015610bb8575f9050610bdf565b600c544210158015610bcc5750600d544211155b15610bda5760019050610bdf565b600290505b90565b600c5481565b5f610bf1610b63565b60115f6101000a81548160ff02191690836003811115610c1457610c13611622565b5b021790555060026003811115610c2d57610c2c611622565b5b60115f9054906101000a900460ff166003811115610c4e57610c4d611622565b5b14610c57575f80fd5b5f60055f60045f9054906101000a900473ffffffffffffffffffffffffffffffffffffffff1673ffffffffffffffffffffffffffffffffffffffff1673ffffffffffffffffffffffffffffffffffffffff1681526020019081526020015f20819055506001905090565b60045f9054906101000a900473ffffffffffffffffffffffffffffffffffffffff1681565b60075f9054906101000a900473ffffffffffffffffffffffffffffffffffffffff1673ffffffffffffffffffffffffffffffffffffffff163373ffffffffffffffffffffffffffffffffffffffff1614610d3e575f80fd5b600360115f6101000a81548160ff02191690836003811115610d6357610d62611622565b5b0217905550565b60075f9054906101000a900473ffffffffffffffffffffffffffffffffffffffff1673ffffffffffffffffffffffffffffffffffffffff163373ffffffffffffffffffffffffffffffffffffffff1614610dc2575f80fd5b8060085f6101000a81548173ffffffffffffffffffffffffffffffffffffffff021916908373ffffffffffffffffffffffffffffffffffffffff16021790555050565b5f60055f8373ffffffffffffffffffffffffffffffffffffffff1673ffffffffffffffffffffffffffffffffffffffff1681526020019081526020015f20549050919050565b60025481565b60095481565b600f5481565b60018054610e6a906118f4565b80601f0160208091040260200160405190810160405280929190818152602001828054610e96906118f4565b8015610ee15780601f10610eb857610100808354040283529160200191610ee1565b820191905f5260205f20905b815481529060010190602001808311610ec457829003601f168201915b505050505081565b5f600e544211610ef7575f80fd5b610f018383611274565b506001905092915050565b60115f9054906101000a900460ff1681565b600b5481565b600e5481565b60085f9054906101000a900473ffffffffffffffffffffffffffffffffffffffff1681565b5f60065f8473ffffffffffffffffffffffffffffffffffffffff1673ffffffffffffffffffffffffffffffffffffffff1681526020019081526020015f205f8373ffffffffffffffffffffffffffffffffffffffff1673ffffffffffffffffffffffffffffffffffffffff1681526020019081526020015f2054905092915050565b600d5481565b60075f9054906101000a900473ffffffffffffffffffffffffffffffffffffffff1681565b600a5481565b5f8160065f8673ffffffffffffffffffffffffffffffffffffffff1673ffffffffffffffffffffffffffffffffffffffff1681526020019081526020015f205f3373ffffffffffffffffffffffffffffffffffffffff1673ffffffffffffffffffffffffffffffffffffffff1681526020019081526020015f20541015611087575f80fd5b8160055f8673ffffffffffffffffffffffffffffffffffffffff1673ffffffffffffffffffffffffffffffffffffffff1681526020019081526020015f205410156110d0575f80fd5b8160055f8673ffffffffffffffffffffffffffffffffffffffff1673ffffffffffffffffffffffffffffffffffffffff1681526020019081526020015f205f82825461111c919061185f565b925050819055508160065f8673ffffffffffffffffffffffffffffffffffffffff1673ffffffffffffffffffffffffffffffffffffffff1681526020019081526020015f205f3373ffffffffffffffffffffffffffffffffffffffff1673ffffffffffffffffffffffffffffffffffffffff1681526020019081526020015f205f8282546111aa919061185f565b925050819055508160055f8573ffffffffffffffffffffffffffffffffffffffff1673ffffffffffffffffffffffffffffffffffffffff1681526020019081526020015f205f8282546111fd91906117cf565b925050819055508273ffffffffffffffffffffffffffffffffffffffff168473ffffffffffffffffffffffffffffffffffffffff167fddf252ad1be2c89b69c2b068fc378daa952ba7f163c4a11628f55a4df523b3ef8460405161126191906113eb565b60405180910390a3600190509392505050565b5f8160055f3373ffffffffffffffffffffffffffffffffffffffff1673ffffffffffffffffffffffffffffffffffffffff1681526020019081526020015f205410156112be575f80fd5b8160055f8573ffffffffffffffffffffffffffffffffffffffff1673ffffffffffffffffffffffffffffffffffffffff1681526020019081526020015f205f82825461130a91906117cf565b925050819055508160055f3373ffffffffffffffffffffffffffffffffffffffff1673ffffffffffffffffffffffffffffffffffffffff1681526020019081526020015f205f82825461135d919061185f565b925050819055508273ffffffffffffffffffffffffffffffffffffffff163373ffffffffffffffffffffffffffffffffffffffff167fddf252ad1be2c89b69c2b068fc378daa952ba7f163c4a11628f55a4df523b3ef846040516113c191906113eb565b60405180910390a36001905092915050565b5f819050919050565b6113e5816113d3565b82525050565b5f6020820190506113fe5f8301846113dc565b92915050565b5f81519050919050565b5f82825260208201905092915050565b5f5b8381101561143b578082015181840152602081019050611420565b5f8484015250505050565b5f601f19601f8301169050919050565b5f61146082611404565b61146a818561140e565b935061147a81856020860161141e565b61148381611446565b840191505092915050565b5f6020820190508181035f8301526114a68184611456565b905092915050565b5f80fd5b5f73ffffffffffffffffffffffffffffffffffffffff82169050919050565b5f6114db826114b2565b9050919050565b6114eb816114d1565b81146114f5575f80fd5b50565b5f81359050611506816114e2565b92915050565b611515816113d3565b811461151f575f80fd5b50565b5f813590506115308161150c565b92915050565b5f806040838503121561154c5761154b6114ae565b5b5f611559858286016114f8565b925050602061156a85828601611522565b9150509250929050565b5f8115159050919050565b61158881611574565b82525050565b5f6020820190506115a15f83018461157f565b92915050565b5f805f606084860312156115be576115bd6114ae565b5b5f6115cb868287016114f8565b93505060206115dc868287016114f8565b92505060406115ed86828701611522565b9150509250925092565b5f6020828403121561160c5761160b6114ae565b5b5f611619848285016114f8565b91505092915050565b7f4e487b71000000000000000000000000000000000000000000000000000000005f52602160045260245ffd5b600481106116605761165f611622565b5b50565b5f8190506116708261164f565b919050565b5f61167f82611663565b9050919050565b61168f81611675565b82525050565b5f6020820190506116a85f830184611686565b92915050565b6116b7816114d1565b82525050565b5f6020820190506116d05f8301846116ae565b92915050565b5f6116e0826114b2565b9050919050565b6116f0816116d6565b81146116fa575f80fd5b50565b5f8135905061170b816116e7565b92915050565b5f60208284031215611726576117256114ae565b5b5f611733848285016116fd565b91505092915050565b611745816116d6565b82525050565b5f60208201905061175e5f83018461173c565b92915050565b5f806040838503121561177a576117796114ae565b5b5f611787858286016114f8565b9250506020611798858286016114f8565b9150509250929050565b7f4e487b71000000000000000000000000000000000000000000000000000000005f52601160045260245ffd5b5f6117d9826113d3565b91506117e4836113d3565b92508282019050808211156117fc576117fb6117a2565b5b92915050565b7f4e487b71000000000000000000000000000000000000000000000000000000005f52601260045260245ffd5b5f611839826113d3565b9150611844836113d3565b92508261185457611853611802565b5b828204905092915050565b5f611869826113d3565b9150611874836113d3565b925082820390508181111561188c5761188b6117a2565b5b92915050565b5f6060820190506118a55f8301866116ae565b6118b260208301856113dc565b6118bf60408301846113dc565b949350505050565b7f4e487b71000000000000000000000000000000000000000000000000000000005f52602260045260245ffd5b5f600282049050600182168061190b57607f821691505b60208210810361191e5761191d6118c7565b5b5091905056fea2646970667358221220c964620440bd65db90a1c8dcbb2213a51e3749b120a5d74544817d8c3615c65b64736f6c63430008150033",
  "immutableReferences": {},
  "source": "// SPDX-License-Identifier: GPL-3.0\r\n\r\npragma solidity >=0.8.2 <0.9.0;\r\n\r\ninterface ERC20Interface {\r\n    function totalSupply() external view returns (uint);\r\n    function balanceOf(address tokenOwner) external view returns (uint balance);\r\n    function transfer(address to, uint tokens) external returns (bool success);\r\n    \r\n    function allowance(address tokenOwner, address spender) external view returns (uint remaining);\r\n    function approve(address spender, uint tokens) external returns (bool success);\r\n    function transferFrom(address from, address to, uint tokens) external returns (bool success);\r\n    \r\n    event Transfer(address indexed from, address indexed to, uint tokens);\r\n    event Approval(address indexed tokenOwner, address indexed spender, uint tokens);\r\n}\r\n\r\n//state variable name used here are most of them are standard try to follow same\r\n//function with the same names as the public variable will be created \r\ncontract Cryptos is ERC20Interface{\r\n    string public name = 'Cryptos';\r\n    string public symbol = 'CRPT' ;   //Each token or crytocurrency has own symbol like BTC or ETH .usually 3 to 4 character long but no restriction on its size\r\n   \r\n   //decimal value are no.of digits that comes after the decimal place \r\n    uint public decimal = 0;//18      //It refer to hw divisible the token can be ,in general it range from 0 to 18\r\n\r\n    ///notice there is already a func called totalsupply in interface so we must override it using override keyword\r\n    uint public override totalSupply; //represents total no.of tokens,here override keyword required becoz in fact it creates a getter func brcoz variable is public\r\n    \r\n    address public founder ;          //founder and his address that deploys the contract and has all the tokens in first place \r\n    \r\n    mapping (address => uint) public balances;//In this variable wil be stored the no.of tokens of each addr\r\n\r\n//keys (address of token holder =>values are other mapping representing the address that allowed to transfer from holder blc => amt allowed to be transfered)\r\n   mapping (address => mapping(address => uint)) allowed;\r\n\r\n\r\nconstructor (){\r\n\r\n    founder = msg.sender;\r\n    totalSupply = 1000000;\r\n    balances[founder] = totalSupply;  //addr wil own the total token supply,once deployed founder wil hv one million token\r\n}\r\n\r\n\r\n    function balanceOf(address tokenOwner) public view override returns (uint balance){\r\n\r\n    return balances[tokenOwner];  //returning blcs of addr\r\n    }\r\n\r\n//the founder has all the tokens any other addr to get tokens transfer func should be called\r\n\r\n    function transfer(address to, uint tokens) public virtual override returns (bool success){  //func make token transferable\r\n      \r\n //func should throw it if the sender's account blc does not hv enough tokens to transfer to recepient     \r\n      require(balances[msg.sender] >= tokens); //no.of tokens owner wants to transfer\r\n \r\n //NOTE according to std ,transfer of zero values must be treated as normal transfer and fire the transfer event\r\n //If the recepient  addr called here had no tokens ,the value in mapping  would be zero and value sent wil be added to zero\r\n      balances[to] += tokens; \r\n\r\n//subtracting the sent tokens from sender blc \r\n    balances[msg.sender] -= tokens;\r\n\r\n//after updating the blcs of sender and recepient ,the function should emit an event,this is log msg that is saved on bc\r\n\r\n    emit Transfer(msg.sender,to,tokens);\r\n\r\n    return true;\r\n\r\n//NOTE we hv followed the general guidelines that funcs revert instead of returning false on failure\r\n//On failure of require condition it wil revert and on success it wil return true\r\n    }\r\n\r\n//tis func returns hw many tokens hv the token owner allowed the spender to withdraw\r\n    function allowance(address tokenOwner, address spender) public view override returns (uint remaining){\r\n\r\n        return allowed[tokenOwner][spender];\r\n    }\r\n\r\n//tis func called by tokenowner to set the allowance,which is the amt that can be spent by the spender from his account\r\n    function approve(address spender, uint tokens) public override returns (bool success){\r\n\r\n      require(balances[msg.sender] >= tokens);\r\n      require(tokens > 0); \r\n\r\n      allowed[msg.sender][spender] = tokens;  //updating allowed mapping\r\n\r\n      emit Approval(msg.sender,spender , tokens); //approval event should be triggered on successful call to approve\r\n\r\n//NOte : some implementation also define another 2 func increase approval ,decrease approval ie to increase or decrease the allowance .our func only sets the allowance for a spender to fixed value\r\n     return true;\r\n    }\r\n\r\n\r\n//tis func allows the spender to withdraw or transfer from the owners account multiple times upto the allowance,tis func also change the current allowance \r\n//tis func only called by the account that was allowed to transfer tokens from holder account to his own or another account \r\n   function transferFrom(address from, address to, uint tokens) public virtual override returns (bool success){\r\n\r\n  require(allowed[from][msg.sender] >= tokens);\r\n  require(balances[from] >= tokens); \r\n\r\n   balances[from]-=tokens;  //subtracting the tokens from owners blc \r\n\r\n  allowed[from][msg.sender] -= tokens;  //updating allowance of user\r\n\r\n  balances[to]+= tokens;  //adding tokens to recepient addr to which spender wants to send money (tis can be any addr)\r\n\r\n  emit Transfer(from,to,tokens);\r\n\r\n  return true;\r\n\r\n   }\r\n\r\n}\r\n\r\ncontract CryptosICO is Cryptos{\r\n\r\naddress public admin;\r\n\r\n//investor wil send Eth to contract addr,ether wil automatically transferred to deposit addr and cryptos added to blc of investor\r\naddress payable public deposit; //addr that gets transferred Ether sent to contract \r\n\r\nuint public tokenPrice = 0.001 ether; //1 Eth = 1000 CRPT,1CRPT = 0.001Eth (investor get)\r\n\r\nuint public hardCap = 300 ether;\r\n\r\nuint public raisedAmount; //holds total amt of ether sent to ICO,value in wei\r\n\r\nuint public SaleStart = block.timestamp; //ie it start while deploying if we want to start in one hr means add no of secs in mins like this block.timestamp + 3600 -->ico start in one hr after deployment \r\n\r\nuint public SaleEnd = block.timestamp + 604800; // Ico ends in one week\r\n\r\n//common for ICO to lock the tokens for amt of time ,I want the tokens to be transferable only after a time after ico ends so the early investors cant dump the tokens on the market ,causing the price to collapse\r\n\r\nuint public tokenTradeStart = SaleEnd + 604800; //transferable in a week after the sales\r\n\r\nuint public minInvestment =0.1 ether;\r\n\r\nuint public maxInvestment =5 ether;\r\n\r\nenum State {                    // These are the possible state of ico\r\n   BeforeStart,\r\n   Running,\r\n   AfterEnd,\r\n   halted\r\n}\r\nState public IcoState;\r\n\r\nconstructor(address payable _deposit){\r\n\r\n    admin = msg.sender;\r\n    deposit = _deposit;                 //deposit addr-> where the ether wil be transfered can also be hardcoded\r\n    IcoState = State.BeforeStart;       //Ico wil start after the deployment not right away\r\n\r\n}\r\n\r\n///notice : admin can stop the ico in case of emergency eg if deposit addr gets compromised or security vulnerability is found in contract \r\n\r\nmodifier onlyAdmin() {\r\n\r\n    require(msg.sender == admin);\r\n    _;\r\n}\r\n\r\nfunction halt() public onlyAdmin{     //tis func called only by the admin to stop the ico at any moment,Its a case when somethng bad happens or there is an emergency\r\n\r\n   IcoState = State.halted;\r\n}\r\n\r\n//admin should be able to restart the ico after the prblm is solved  \r\n\r\nfunction resume() public onlyAdmin{     \r\n   IcoState = State.Running;\r\n}\r\n\r\nfunction changeDepositAddress(address payable newDeposit) public onlyAdmin{     //In tis case when its get compromised and must be changed\r\n   deposit = newDeposit;\r\n}\r\n\r\nfunction getCurrentState() public view returns(State){  //returns the states of ico\r\n   \r\n  if(IcoState == State.halted){\r\n    return State.halted;\r\n    }\r\n    else if(block.timestamp < SaleStart){\r\n        return State.BeforeStart;\r\n    }\r\n    else if (block.timestamp>=SaleStart && block.timestamp<=SaleEnd){\r\n         return State.Running;\r\n    }\r\n  else{\r\n    return State.AfterEnd;     //ICO ended\r\n  }\r\n\r\n}\r\n\r\nevent Invest(address investor , uint value,uint tokens);\r\n//tis is main func of ico and investor can buy cryptos by calling tis func using front end app and sending it with wallet or sending eth directly to ICO addr \r\n//tis func called when somebody sends eth to contract and receives cryptos in turn\r\nfunction invest() payable public returns(bool){\r\n\r\n   IcoState = getCurrentState();\r\n\r\n   require(IcoState == State.Running);\r\n\r\n   require(msg.value >= minInvestment && msg.value <= maxInvestment);\r\n   \r\n   raisedAmount += msg.value;\r\n  \r\n  require(raisedAmount <= hardCap);\r\n\r\n  //calculate the no of tokens the user get for the ether he has sent\r\n\r\nuint tokens = msg.value / tokenPrice;  //divide the number of wei the user has sent by the token price in wei\r\n\r\nbalances[msg.sender] += tokens;  //blcs is mapping variable declared in erc20 token contract and inherited by ICO contract\r\nbalances[founder] -= tokens;\r\n\r\n//transfer to deposit addr the amt of wei sent to the contract \r\n\r\ndeposit.transfer(msg.value);\r\n\r\n//emitting an event which is log msg written to bc that can be processed by front ends \r\n\r\nemit Invest(msg.sender,msg.value,tokens);\r\n\r\nreturn true;\r\n\r\n}\r\n\r\nreceive() external payable{         //tis func automatically called when somebody sends eth directly to contract addr\r\n\r\ninvest();\r\n\r\n}\r\n\r\n function transfer(address to, uint tokens) public  override returns (bool success){\r\n\r\n require(block.timestamp > tokenTradeStart); //so current trans date is greater than tokentradestart\r\n\r\n//calling the transfer func of base contract called cryptos \r\n\r\nCryptos.transfer(to,tokens);\r\n\r\nreturn true;\r\n\r\n }\r\n\r\n\r\n\r\n function transferFrom(address from, address to, uint tokens) public  override returns (bool success){\r\nrequire(block.timestamp > tokenTradeStart); //so current trans date is greater than tokentradestart\r\n\r\n//calling the transfer func of base contract called cryptos \r\n\r\nsuper.transferFrom(from,to,tokens); //same as Cryptos.transfer instead cryptos name we using super\r\n\r\nreturn true;\r\n }\r\n\r\n// burning unsold tokens\r\nfunction burn() public returns (bool){       //func can be called by anyone ,not only by admin \r\n\r\nIcoState = getCurrentState();               //current state of ICO,token wil be burned only after the ICO ends \r\n \r\nrequire(IcoState == State.AfterEnd);\r\n\r\nbalances[founder] = 0;                     //tokens hv just vanished \r\n\r\nreturn true;\r\n\r\n//there is no code in the contract that could create the tokens again \r\n}\r\n\r\n\r\n\r\n\r\n}\r\n\r\n",
  "sourcePath": "E:\\ICO-SmartContract\\truffle\\contracts\\CryptosICO.sol",
  "compiler": {
    "name": "solc",
    "version": "0.8.21+commit.d9974bed.Emscripten.clang"
  },
  "schemaVersion": "3.4.16",
  "updatedAt": "2024-03-17T15:24:39.248Z",
  "networkType": "ethereum",
  "devdoc": {
    "kind": "dev",
    "methods": {},
    "version": 1
  },
  "userdoc": {
    "kind": "user",
    "methods": {
      "totalSupply()": {
        "notice": "notice there is already a func called totalsupply in interface so we must override it using override keyword"
      }
    },
    "version": 1
  }
}